{
  "_format": "hh-sol-artifact-1",
  "contractName": "Escrow",
  "sourceName": "contracts/Escrow.sol",
  "abi": [
    {
      "anonymous": false,
      "inputs": [
        {
          "indexed": true,
          "internalType": "uint256",
          "name": "transactionId",
          "type": "uint256"
        },
        {
          "indexed": true,
          "internalType": "address",
          "name": "buyer",
          "type": "address"
        },
        {
          "indexed": true,
          "internalType": "address",
          "name": "seller",
          "type": "address"
        },
        {
          "indexed": false,
          "internalType": "uint256",
          "name": "amount",
          "type": "uint256"
        },
        {
          "indexed": false,
          "internalType": "uint256",
          "name": "deadline",
          "type": "uint256"
        }
      ],
      "name": "EscrowCreated",
      "type": "event"
    },
    {
      "anonymous": false,
      "inputs": [
        {
          "indexed": true,
          "internalType": "uint256",
          "name": "transactionId",
          "type": "uint256"
        },
        {
          "indexed": true,
          "internalType": "address",
          "name": "buyer",
          "type": "address"
        },
        {
          "indexed": false,
          "internalType": "uint256",
          "name": "amount",
          "type": "uint256"
        }
      ],
      "name": "FundsRefunded",
      "type": "event"
    },
    {
      "anonymous": false,
      "inputs": [
        {
          "indexed": true,
          "internalType": "uint256",
          "name": "transactionId",
          "type": "uint256"
        },
        {
          "indexed": true,
          "internalType": "address",
          "name": "receiver",
          "type": "address"
        },
        {
          "indexed": false,
          "internalType": "uint256",
          "name": "amount",
          "type": "uint256"
        }
      ],
      "name": "FundsReleased",
      "type": "event"
    },
    {
      "inputs": [
        {
          "internalType": "uint256",
          "name": "_transactionId",
          "type": "uint256"
        }
      ],
      "name": "autoReleaseFunds",
      "outputs": [],
      "stateMutability": "nonpayable",
      "type": "function"
    },
    {
      "inputs": [
        {
          "internalType": "address",
          "name": "_seller",
          "type": "address"
        },
        {
          "internalType": "uint256",
          "name": "_duration",
          "type": "uint256"
        }
      ],
      "name": "createEscrow",
      "outputs": [],
      "stateMutability": "payable",
      "type": "function"
    },
    {
      "inputs": [],
      "name": "nextTransactionId",
      "outputs": [
        {
          "internalType": "uint256",
          "name": "",
          "type": "uint256"
        }
      ],
      "stateMutability": "view",
      "type": "function"
    },
    {
      "inputs": [
        {
          "internalType": "uint256",
          "name": "_transactionId",
          "type": "uint256"
        }
      ],
      "name": "refundBuyer",
      "outputs": [],
      "stateMutability": "nonpayable",
      "type": "function"
    },
    {
      "inputs": [
        {
          "internalType": "uint256",
          "name": "_transactionId",
          "type": "uint256"
        }
      ],
      "name": "releaseFunds",
      "outputs": [],
      "stateMutability": "nonpayable",
      "type": "function"
    },
    {
      "inputs": [
        {
          "internalType": "uint256",
          "name": "",
          "type": "uint256"
        }
      ],
      "name": "transactions",
      "outputs": [
        {
          "internalType": "address",
          "name": "buyer",
          "type": "address"
        },
        {
          "internalType": "address",
          "name": "seller",
          "type": "address"
        },
        {
          "internalType": "uint256",
          "name": "amount",
          "type": "uint256"
        },
        {
          "internalType": "uint256",
          "name": "deadline",
          "type": "uint256"
        },
        {
          "internalType": "bool",
          "name": "isCompleted",
          "type": "bool"
        },
        {
          "internalType": "bool",
          "name": "isRefunded",
          "type": "bool"
        }
      ],
      "stateMutability": "view",
      "type": "function"
    }
  ],
  "bytecode": "0x608060405234801561001057600080fd5b50611509806100206000396000f3fe6080604052600436106100555760003560e01c8063392927631461005a5780634614874e146100835780634d68282f1461009f57806399b2833f146100c85780639ace38c2146100f1578063d7ca38f314610133575b600080fd5b34801561006657600080fd5b50610081600480360381019061007c9190610d84565b61015e565b005b61009d60048036038101906100989190610e0f565b610434565b005b3480156100ab57600080fd5b506100c660048036038101906100c19190610d84565b610786565b005b3480156100d457600080fd5b506100ef60048036038101906100ea9190610d84565b610a3f565b005b3480156100fd57600080fd5b5061011860048036038101906101139190610d84565b610cad565b60405161012a96959493929190610e88565b60405180910390f35b34801561013f57600080fd5b50610148610d43565b6040516101559190610ee9565b60405180910390f35b600080600083815260200190815260200160002090508060040160009054906101000a900460ff16156101c6576040517f08c379a00000000000000000000000000000000000000000000000000000000081526004016101bd90610f61565b60405180910390fd5b8060040160019054906101000a900460ff1615610218576040517f08c379a000000000000000000000000000000000000000000000000000000000815260040161020f90610fcd565b60405180910390fd5b8060010160009054906101000a900473ffffffffffffffffffffffffffffffffffffffff1673ffffffffffffffffffffffffffffffffffffffff163373ffffffffffffffffffffffffffffffffffffffff16146102aa576040517f08c379a00000000000000000000000000000000000000000000000000000000081526004016102a190611039565b60405180910390fd5b60018160040160006101000a81548160ff02191690831515021790555060018160040160016101000a81548160ff02191690831515021790555060008160000160009054906101000a900473ffffffffffffffffffffffffffffffffffffffff1673ffffffffffffffffffffffffffffffffffffffff1682600201546040516103329061108a565b60006040518083038185875af1925050503d806000811461036f576040519150601f19603f3d011682016040523d82523d6000602084013e610374565b606091505b50509050806103b8576040517f08c379a00000000000000000000000000000000000000000000000000000000081526004016103af906110eb565b60405180910390fd5b8160000160009054906101000a900473ffffffffffffffffffffffffffffffffffffffff1673ffffffffffffffffffffffffffffffffffffffff16837f80b577b4fc190ab86d963549e29f496afd079c5d81a2480d61217d4b5060a28c84600201546040516104279190610ee9565b60405180910390a3505050565b60003411610477576040517f08c379a000000000000000000000000000000000000000000000000000000000815260040161046e90611157565b60405180910390fd5b600073ffffffffffffffffffffffffffffffffffffffff168273ffffffffffffffffffffffffffffffffffffffff16036104e6576040517f08c379a00000000000000000000000000000000000000000000000000000000081526004016104dd906111c3565b60405180910390fd5b3373ffffffffffffffffffffffffffffffffffffffff168273ffffffffffffffffffffffffffffffffffffffff1603610554576040517f08c379a000000000000000000000000000000000000000000000000000000000815260040161054b9061122f565b60405180910390fd5b60008111610597576040517f08c379a000000000000000000000000000000000000000000000000000000000815260040161058e9061129b565b60405180910390fd5b6000600160008154809291906105ac906112ea565b919050559050600082426105c09190611332565b90506040518060c001604052803373ffffffffffffffffffffffffffffffffffffffff1681526020018573ffffffffffffffffffffffffffffffffffffffff1681526020013481526020018281526020016000151581526020016000151581525060008084815260200190815260200160002060008201518160000160006101000a81548173ffffffffffffffffffffffffffffffffffffffff021916908373ffffffffffffffffffffffffffffffffffffffff16021790555060208201518160010160006101000a81548173ffffffffffffffffffffffffffffffffffffffff021916908373ffffffffffffffffffffffffffffffffffffffff160217905550604082015181600201556060820151816003015560808201518160040160006101000a81548160ff02191690831515021790555060a08201518160040160016101000a81548160ff0219169083151502179055509050508373ffffffffffffffffffffffffffffffffffffffff163373ffffffffffffffffffffffffffffffffffffffff16837f59e4b8728799382406714f1c57de5c893d2772f9a8bf9950c5afe4397e6486543485604051610778929190611366565b60405180910390a450505050565b600080600083815260200190815260200160002090508060040160009054906101000a900460ff16156107ee576040517f08c379a00000000000000000000000000000000000000000000000000000000081526004016107e590610f61565b60405180910390fd5b8060040160019054906101000a900460ff1615610840576040517f08c379a000000000000000000000000000000000000000000000000000000000815260040161083790610fcd565b60405180910390fd5b8060000160009054906101000a900473ffffffffffffffffffffffffffffffffffffffff1673ffffffffffffffffffffffffffffffffffffffff163373ffffffffffffffffffffffffffffffffffffffff16146108d2576040517f08c379a00000000000000000000000000000000000000000000000000000000081526004016108c9906113db565b60405180910390fd5b60018160040160006101000a81548160ff02191690831515021790555060008160010160009054906101000a900473ffffffffffffffffffffffffffffffffffffffff1673ffffffffffffffffffffffffffffffffffffffff16826002015460405161093d9061108a565b60006040518083038185875af1925050503d806000811461097a576040519150601f19603f3d011682016040523d82523d6000602084013e61097f565b606091505b50509050806109c3576040517f08c379a00000000000000000000000000000000000000000000000000000000081526004016109ba90611447565b60405180910390fd5b8160010160009054906101000a900473ffffffffffffffffffffffffffffffffffffffff1673ffffffffffffffffffffffffffffffffffffffff16837f6e3c6096795c8298a218b2cfb8bde42726ff7c9a3d27b4d3ba41ab7f74feb5fb8460020154604051610a329190610ee9565b60405180910390a3505050565b600080600083815260200190815260200160002090508060040160009054906101000a900460ff1615610aa7576040517f08c379a0000000000000000000000000000000000000000000000000000000008152600401610a9e90610f61565b60405180910390fd5b8060040160019054906101000a900460ff1615610af9576040517f08c379a0000000000000000000000000000000000000000000000000000000008152600401610af090610fcd565b60405180910390fd5b8060030154421015610b40576040517f08c379a0000000000000000000000000000000000000000000000000000000008152600401610b37906114b3565b60405180910390fd5b60018160040160006101000a81548160ff02191690831515021790555060008160010160009054906101000a900473ffffffffffffffffffffffffffffffffffffffff1673ffffffffffffffffffffffffffffffffffffffff168260020154604051610bab9061108a565b60006040518083038185875af1925050503d8060008114610be8576040519150601f19603f3d011682016040523d82523d6000602084013e610bed565b606091505b5050905080610c31576040517f08c379a0000000000000000000000000000000000000000000000000000000008152600401610c2890611447565b60405180910390fd5b8160010160009054906101000a900473ffffffffffffffffffffffffffffffffffffffff1673ffffffffffffffffffffffffffffffffffffffff16837f6e3c6096795c8298a218b2cfb8bde42726ff7c9a3d27b4d3ba41ab7f74feb5fb8460020154604051610ca09190610ee9565b60405180910390a3505050565b60006020528060005260406000206000915090508060000160009054906101000a900473ffffffffffffffffffffffffffffffffffffffff16908060010160009054906101000a900473ffffffffffffffffffffffffffffffffffffffff16908060020154908060030154908060040160009054906101000a900460ff16908060040160019054906101000a900460ff16905086565b60015481565b600080fd5b6000819050919050565b610d6181610d4e565b8114610d6c57600080fd5b50565b600081359050610d7e81610d58565b92915050565b600060208284031215610d9a57610d99610d49565b5b6000610da884828501610d6f565b91505092915050565b600073ffffffffffffffffffffffffffffffffffffffff82169050919050565b6000610ddc82610db1565b9050919050565b610dec81610dd1565b8114610df757600080fd5b50565b600081359050610e0981610de3565b92915050565b60008060408385031215610e2657610e25610d49565b5b6000610e3485828601610dfa565b9250506020610e4585828601610d6f565b9150509250929050565b610e5881610dd1565b82525050565b610e6781610d4e565b82525050565b60008115159050919050565b610e8281610e6d565b82525050565b600060c082019050610e9d6000830189610e4f565b610eaa6020830188610e4f565b610eb76040830187610e5e565b610ec46060830186610e5e565b610ed16080830185610e79565b610ede60a0830184610e79565b979650505050505050565b6000602082019050610efe6000830184610e5e565b92915050565b600082825260208201905092915050565b7f5472616e73616374696f6e20616c726561647920636f6d706c65746564000000600082015250565b6000610f4b601d83610f04565b9150610f5682610f15565b602082019050919050565b60006020820190508181036000830152610f7a81610f3e565b9050919050565b7f5472616e73616374696f6e20616c726561647920726566756e64656400000000600082015250565b6000610fb7601c83610f04565b9150610fc282610f81565b602082019050919050565b60006020820190508181036000830152610fe681610faa565b9050919050565b7f4f6e6c792073656c6c65722063616e206973737565206120726566756e640000600082015250565b6000611023601e83610f04565b915061102e82610fed565b602082019050919050565b6000602082019050818103600083015261105281611016565b9050919050565b600081905092915050565b50565b6000611074600083611059565b915061107f82611064565b600082019050919050565b600061109582611067565b9150819050919050565b7f526566756e64207472616e73666572206661696c656400000000000000000000600082015250565b60006110d5601683610f04565b91506110e08261109f565b602082019050919050565b60006020820190508181036000830152611104816110c8565b9050919050565b7f416d6f756e74206d7573742062652067726561746572207468616e2030000000600082015250565b6000611141601d83610f04565b915061114c8261110b565b602082019050919050565b6000602082019050818103600083015261117081611134565b9050919050565b7f496e76616c69642073656c6c6572206164647265737300000000000000000000600082015250565b60006111ad601683610f04565b91506111b882611177565b602082019050919050565b600060208201905081810360008301526111dc816111a0565b9050919050565b7f42757965722063616e6e6f742062652073656c6c657200000000000000000000600082015250565b6000611219601683610f04565b9150611224826111e3565b602082019050919050565b600060208201905081810360008301526112488161120c565b9050919050565b7f4475726174696f6e206d7573742062652067726561746572207468616e203000600082015250565b6000611285601f83610f04565b91506112908261124f565b602082019050919050565b600060208201905081810360008301526112b481611278565b9050919050565b7f4e487b7100000000000000000000000000000000000000000000000000000000600052601160045260246000fd5b60006112f582610d4e565b91507fffffffffffffffffffffffffffffffffffffffffffffffffffffffffffffffff8203611327576113266112bb565b5b600182019050919050565b600061133d82610d4e565b915061134883610d4e565b92508282019050808211156113605761135f6112bb565b5b92915050565b600060408201905061137b6000830185610e5e565b6113886020830184610e5e565b9392505050565b7f4f6e6c792062757965722063616e2072656c656173652066756e647300000000600082015250565b60006113c5601c83610f04565b91506113d08261138f565b602082019050919050565b600060208201905081810360008301526113f4816113b8565b9050919050565b7f5472616e73666572206661696c65640000000000000000000000000000000000600082015250565b6000611431600f83610f04565b915061143c826113fb565b602082019050919050565b6000602082019050818103600083015261146081611424565b9050919050565b7f446561646c696e65206e6f742070617373656420796574000000000000000000600082015250565b600061149d601783610f04565b91506114a882611467565b602082019050919050565b600060208201905081810360008301526114cc81611490565b905091905056fea2646970667358221220d984cf6865bd5f79f6e4dff38e6ff0a7d239ce48ec2cb77e86936e34be07b3f764736f6c63430008180033",
  "linkReferences": {},
  "deployedLinkReferences": {}
}